:020000040000FA
:10000000A1EF00F05A0EF66E010EF76E000EF86EBC
:100010000900F550056E0900F550066E055002E125
:1000200006503BE00900F550006E0900F550016EE6
:100030000900F550026E09000900F550E96E09004B
:10004000F550EA6E090009000900F550036E090039
:10005000F550046E09000900F6CF07F0F7CF08F05D
:10006000F8CF09F000C0F6FF01C0F7FF02C0F8FFAB
:10007000035002E1045007E00900F550EE6E03065C
:10008000F8E20406F9D707C0F6FF08C0F7FF09C079
:10009000F8FF0506C4E20606C5D71200D9CFE5FF72
:1000A000E1CFD9FF00C0E5FF01C0E5FF02C0E5FFD9
:1000B00003C0E5FF020EDBCF00F0030EDBCF01F043
:1000C0000050011003E0010E026E01D0026A0250DE
:1000D00010E0026A280E025C07E2070E036E0000C1
:1000E000032EFDD7022AF6D7FF0E0026D8A0010660
:1000F000E7D7E4CF03F0E4CF02F0E4CF01F0E4CFA0
:1001000000F0E4CFD9FF1200929094948980FF0E02
:10011000CB6EFF0ECA6E2C0EBD6E8980000EE56E92
:10012000030EE56E4EEC00F0020EE1268990000E03
:10013000E56E240EE56E4EEC00F0020EE126EDD7E2
:10014000120011EE5FF021EE5FF0F86AA68EA69C19
:1001500002EC00F084EC00F0FFD701006801000021
:0A0160006001000001000000000033
:020000040030CA
:0E000000E4BEF0FEFFF99AFFFFFFFFFFFFFFD7
:00000001FF
